{
  "contractName": "Artist",
  "abi": [
    {
      "anonymous": false,
      "inputs": [
        {
          "indexed": true,
          "internalType": "address",
          "name": "_newAddress",
          "type": "address"
        }
      ],
      "name": "AddToWhitelist",
      "type": "event"
    },
    {
      "anonymous": false,
      "inputs": [
        {
          "indexed": true,
          "internalType": "address",
          "name": "_removedAddress",
          "type": "address"
        }
      ],
      "name": "RemoveFromWhitelist",
      "type": "event"
    },
    {
      "constant": false,
      "inputs": [
        {
          "internalType": "bool",
          "name": "_enabled",
          "type": "bool"
        }
      ],
      "name": "enableWhitelist",
      "outputs": [],
      "payable": false,
      "stateMutability": "nonpayable",
      "type": "function"
    },
    {
      "constant": false,
      "inputs": [
        {
          "internalType": "address",
          "name": "_newAddress",
          "type": "address"
        }
      ],
      "name": "addToWhitelist",
      "outputs": [],
      "payable": false,
      "stateMutability": "nonpayable",
      "type": "function"
    },
    {
      "constant": false,
      "inputs": [
        {
          "internalType": "address",
          "name": "_removedAddress",
          "type": "address"
        }
      ],
      "name": "removeFromWhitelist",
      "outputs": [],
      "payable": false,
      "stateMutability": "nonpayable",
      "type": "function"
    },
    {
      "constant": true,
      "inputs": [
        {
          "internalType": "address",
          "name": "_address",
          "type": "address"
        }
      ],
      "name": "isWhitelisted",
      "outputs": [
        {
          "internalType": "bool",
          "name": "",
          "type": "bool"
        }
      ],
      "payable": false,
      "stateMutability": "view",
      "type": "function"
    }
  ],
  "bytecode": "0x608060405260018060006101000a81548160ff02191690831515021790555034801561002a57600080fd5b5061040d8061003a6000396000f3fe608060405234801561001057600080fd5b506004361061004c5760003560e01c8063040b6583146100515780633af32abf1461006d5780638ab1d6811461009d578063e43252d7146100b9575b600080fd5b61006b6004803603610066919081019061030b565b6100d5565b005b610087600480360361008291908101906102e2565b6100f2565b6040516100949190610343565b60405180910390f35b6100b760048036036100b291908101906102e2565b610166565b005b6100d360048036036100ce91908101906102e2565b6101b5565b005b80600160006101000a81548160ff02191690831515021790555050565b6000600160009054906101000a900460ff161561015c576000808373ffffffffffffffffffffffffffffffffffffffff1673ffffffffffffffffffffffffffffffffffffffff16815260200190815260200160002060009054906101000a900460ff169050610161565b600190505b919050565b61016f81610204565b8073ffffffffffffffffffffffffffffffffffffffff167f1f756c8b089af6b33ee121fee8badac2553a2fa89c0575ea91ff8792617746c260405160405180910390a250565b6101be8161025e565b8073ffffffffffffffffffffffffffffffffffffffff167f75b2135d1c8c3519f3c09c43fe6527089ef09f40c7981ebf0ed46e79e79032c760405160405180910390a250565b60008060008373ffffffffffffffffffffffffffffffffffffffff1673ffffffffffffffffffffffffffffffffffffffff16815260200190815260200160002060006101000a81548160ff02191690831515021790555050565b60016000808373ffffffffffffffffffffffffffffffffffffffff1673ffffffffffffffffffffffffffffffffffffffff16815260200190815260200160002060006101000a81548160ff02191690831515021790555050565b6000813590506102c78161039c565b92915050565b6000813590506102dc816103b3565b92915050565b6000602082840312156102f457600080fd5b6000610302848285016102b8565b91505092915050565b60006020828403121561031d57600080fd5b600061032b848285016102cd565b91505092915050565b61033d81610370565b82525050565b60006020820190506103586000830184610334565b92915050565b60006103698261037c565b9050919050565b60008115159050919050565b600073ffffffffffffffffffffffffffffffffffffffff82169050919050565b6103a58161035e565b81146103b057600080fd5b50565b6103bc81610370565b81146103c757600080fd5b5056fea365627a7a723158201716bc3abfd6d14310af8f868c7f7165139bdc79f2965fc5301d7053d164a0026c6578706572696d656e74616cf564736f6c63430005100040",
  "source": "pragma solidity >=0.4.22 <0.9.0;\r\npragma experimental ABIEncoderV2;\r\nimport \"@openzeppelin/contracts/token/ERC721/ERC721Full.sol\";\r\nimport \"@openzeppelin/contracts/access/Roles.sol\";\r\n//import \"@openzeppelin/contracts/ownership/Ownable.sol\";\r\n\r\n\r\n\r\n\r\ncontract Artist  {\r\n    /*address owner;\r\n    constructor() public{\r\n      owner=msg.sender;\r\n\r\n    }*/\r\n    // Mapping of address to boolean indicating whether the address is whitelisted\r\n    mapping(address => bool) private whitelistMap;\r\n\r\n    // flag controlling whether whitelist is enabled.\r\n    bool private whitelistEnabled = true;\r\n\r\n    event AddToWhitelist(address indexed _newAddress);\r\n    event RemoveFromWhitelist(address indexed _removedAddress);\r\n\r\n    /**\r\n   * @dev Enable or disable the whitelist\r\n   * @param _enabled bool of whether to enable the whitelist.\r\n   */\r\n    function enableWhitelist(bool _enabled) public  {\r\n        whitelistEnabled = _enabled;\r\n    }\r\n\r\n    /**\r\n   * @dev Adds the provided address to the whitelist\r\n   * @param _newAddress address to be added to the whitelist\r\n   */\r\n    function addToWhitelist(address _newAddress) public  {\r\n        _whitelist(_newAddress);\r\n        emit AddToWhitelist(_newAddress);\r\n    }\r\n\r\n    /**\r\n   * @dev Removes the provided address to the whitelist\r\n   * @param _removedAddress address to be removed from the whitelist\r\n   */ \r\n     function removeFromWhitelist(address _removedAddress) public  {\r\n        _unWhitelist(_removedAddress);\r\n        emit RemoveFromWhitelist(_removedAddress);\r\n    }\r\n\r\n    /**\r\n   * @dev Returns whether the address is whitelisted\r\n   * @param _address address to check\r\n   * @return bool\r\n   */\r\n    function isWhitelisted(address _address) public view returns (bool) {\r\n        if (whitelistEnabled) {\r\n            return whitelistMap[_address];\r\n        } else {\r\n            return true;\r\n        }\r\n    }\r\n\r\n    /**\r\n   * @dev Internal function for removing an address from the whitelist\r\n   * @param _removedAddress address to unwhitelisted\r\n   */\r\n    function _unWhitelist(address _removedAddress) internal {\r\n        whitelistMap[_removedAddress] = false;\r\n    }\r\n\r\n    /**\r\n   * @dev Internal function for adding the provided address to the whitelist\r\n   * @param _newAddress address to be added to the whitelist\r\n   */\r\n    function _whitelist(address _newAddress) internal {\r\n        whitelistMap[_newAddress] = true;\r\n    }\r\n}\r\n\r\n\r\n\r\n\r\n\r\n\r\n\r\ncontract customContract is ERC721Full,Artist{\r\n\r\nusing Roles for Roles.Role;\r\n\r\nRoles.Role private artist;\r\nRoles.Role private buyer;\r\n\r\nArtist public authorizedArtist;\r\n\r\n\r\n\r\n\r\nstruct artiFact{\r\n    uint tokenID;\r\n    string url;\r\n    uint noOfCopies;\r\n    uint price;\r\n}\r\n\r\n\r\n\r\n\r\n//mapping(address=>buyerRequest) requestLog;\r\n\r\n\r\nmapping(address=>artiFact) Records;\r\nartiFact[] public tokenList;\r\nstring[] public urlList;\r\n\r\n\r\n\r\n \r\naddress public owner ;\r\naddress public artistArray;\r\n\r\n  constructor() ERC721Full(\"color\",\"COLOR\") public {\r\n      owner=msg.sender;\r\n  }\r\n  \r\nfunction addArtist(address add) public returns (bool)\r\n{\r\n    require(msg.sender==owner,\"access error\");\r\n   // authorizedArtist.\r\n    _whitelist(add);\r\n    //artist.add(add);\r\n    return true;\r\n}\r\n\r\n\r\nfunction addBuyer(address add) public returns (bool)\r\n{ \r\n    require(msg.sender==owner,\"access error\");\r\n    buyer.add(add);\r\n    return true;\r\n}\r\n\r\n\r\nfunction mintMyToken(string memory  _url,uint  _copies,uint price) public returns(bool){\r\n\r\n   require(isWhitelisted(msg.sender)==true,\"not authorized for minting\");\r\n   for(uint i=0;i<_copies;i++){\r\n    uint _id=urlList.push(_url);\r\n    _mint(msg.sender,_id);\r\n    artiFact memory tempArtifact= artiFact(_id,_url,_copies,price);\r\n    Records[msg.sender]=tempArtifact; \r\n   }\r\n    return true;\r\n\r\n   \r\n\r\n  /*  require(artist.has(msg.sender),'artist is not registered yet');\r\n    uint _id=urlList.push(_url);\r\n    _mint(msg.sender,_id);\r\n    artiFact memory tempArtifact= artiFact(_id,_url,_copies,price);\r\n   // tempArtifact.tokenID=_id;\r\n   // tempArtifact.url=_url;\r\n    //tempArtifact.noOfCopies=_copies;\r\n    //(_id,_url,_copies)\r\n    Records[msg.sender]=tempArtifact;\r\n    return true;\r\n  */\r\n}\r\n\r\nfunction totalToken() public view  returns(uint){\r\n    uint num=totalSupply();\r\n    return num;\r\n}\r\n\r\nfunction getArtiFactPrice(uint _Id) external returns(uint )\r\n{\r\n    for(uint i=0;i<tokenList.length;i++)\r\n    {\r\n        if(tokenList[i].tokenID==_Id)\r\n        {\r\n            return tokenList[i].price;\r\n        }\r\n    }\r\n}\r\n\r\n\r\nfunction getArtiFact(uint _Id) public view returns(artiFact memory )\r\n{\r\n    for(uint i=0;i<tokenList.length;i++)\r\n    {\r\n        if(tokenList[i].tokenID==_Id)\r\n        {\r\n            return tokenList[i];\r\n        }\r\n    }\r\n}\r\n\r\nfunction buyArtiFactInfo(uint tokenID,address to)public payable returns(bool){\r\n    require(buyer.has(to),'Buyer is not registered');\r\n    artiFact memory temp=getArtiFact(tokenID);\r\n    transferFrom(ownerOf(tokenID),to,tokenID);\r\n  //  require(msg.value>=temp.price,'insufficient amount');\r\n  //  buyerRequest memory tempRequest=buyerRequest(tokenID,msg.value,msg.sender);\r\n\r\n    return true;  \r\n}\r\n\r\n  \r\n}\r\n\r\n\r\n\r\n\r\n",
  "sourcePath": "C:/Users/Sanan/contracts/test2/contracts/customContract.sol",
  "compiler": {
    "name": "solc",
    "version": "0.5.16+commit.9c3226ce.Emscripten.clang"
  },
  "schemaVersion": "3.4.0",
  "updatedAt": "2021-05-19T11:38:16.876Z",
  "devdoc": {
    "methods": {
      "addToWhitelist(address)": {
        "details": "Adds the provided address to the whitelist",
        "params": {
          "_newAddress": "address to be added to the whitelist"
        }
      },
      "enableWhitelist(bool)": {
        "details": "Enable or disable the whitelist",
        "params": {
          "_enabled": "bool of whether to enable the whitelist."
        }
      },
      "isWhitelisted(address)": {
        "details": "Returns whether the address is whitelisted",
        "params": {
          "_address": "address to check"
        },
        "return": "bool"
      },
      "removeFromWhitelist(address)": {
        "details": "Removes the provided address to the whitelist",
        "params": {
          "_removedAddress": "address to be removed from the whitelist"
        }
      }
    }
  },
  "userdoc": {
    "methods": {}
  }
}