{
  "contractName": "customContract",
  "abi": [
    {
      "inputs": [],
      "payable": false,
      "stateMutability": "nonpayable",
      "type": "constructor"
    },
    {
      "anonymous": false,
      "inputs": [
        {
          "indexed": true,
          "internalType": "address",
          "name": "_newAddress",
          "type": "address"
        }
      ],
      "name": "AddToWhitelist",
      "type": "event"
    },
    {
      "anonymous": false,
      "inputs": [
        {
          "indexed": true,
          "internalType": "address",
          "name": "owner",
          "type": "address"
        },
        {
          "indexed": true,
          "internalType": "address",
          "name": "approved",
          "type": "address"
        },
        {
          "indexed": true,
          "internalType": "uint256",
          "name": "tokenId",
          "type": "uint256"
        }
      ],
      "name": "Approval",
      "type": "event"
    },
    {
      "anonymous": false,
      "inputs": [
        {
          "indexed": true,
          "internalType": "address",
          "name": "owner",
          "type": "address"
        },
        {
          "indexed": true,
          "internalType": "address",
          "name": "operator",
          "type": "address"
        },
        {
          "indexed": false,
          "internalType": "bool",
          "name": "approved",
          "type": "bool"
        }
      ],
      "name": "ApprovalForAll",
      "type": "event"
    },
    {
      "anonymous": false,
      "inputs": [
        {
          "indexed": true,
          "internalType": "address",
          "name": "_removedAddress",
          "type": "address"
        }
      ],
      "name": "RemoveFromWhitelist",
      "type": "event"
    },
    {
      "anonymous": false,
      "inputs": [
        {
          "indexed": true,
          "internalType": "address",
          "name": "from",
          "type": "address"
        },
        {
          "indexed": true,
          "internalType": "address",
          "name": "to",
          "type": "address"
        },
        {
          "indexed": true,
          "internalType": "uint256",
          "name": "tokenId",
          "type": "uint256"
        }
      ],
      "name": "Transfer",
      "type": "event"
    },
    {
      "constant": false,
      "inputs": [
        {
          "internalType": "address",
          "name": "_newAddress",
          "type": "address"
        }
      ],
      "name": "addToWhitelist",
      "outputs": [],
      "payable": false,
      "stateMutability": "nonpayable",
      "type": "function"
    },
    {
      "constant": false,
      "inputs": [
        {
          "internalType": "address",
          "name": "to",
          "type": "address"
        },
        {
          "internalType": "uint256",
          "name": "tokenId",
          "type": "uint256"
        }
      ],
      "name": "approve",
      "outputs": [],
      "payable": false,
      "stateMutability": "nonpayable",
      "type": "function"
    },
    {
      "constant": true,
      "inputs": [],
      "name": "artistArray",
      "outputs": [
        {
          "internalType": "address",
          "name": "",
          "type": "address"
        }
      ],
      "payable": false,
      "stateMutability": "view",
      "type": "function"
    },
    {
      "constant": true,
      "inputs": [],
      "name": "authorizedArtist",
      "outputs": [
        {
          "internalType": "contract Artist",
          "name": "",
          "type": "address"
        }
      ],
      "payable": false,
      "stateMutability": "view",
      "type": "function"
    },
    {
      "constant": true,
      "inputs": [
        {
          "internalType": "address",
          "name": "owner",
          "type": "address"
        }
      ],
      "name": "balanceOf",
      "outputs": [
        {
          "internalType": "uint256",
          "name": "",
          "type": "uint256"
        }
      ],
      "payable": false,
      "stateMutability": "view",
      "type": "function"
    },
    {
      "constant": true,
      "inputs": [],
      "name": "baseURI",
      "outputs": [
        {
          "internalType": "string",
          "name": "",
          "type": "string"
        }
      ],
      "payable": false,
      "stateMutability": "view",
      "type": "function"
    },
    {
      "constant": false,
      "inputs": [
        {
          "internalType": "bool",
          "name": "_enabled",
          "type": "bool"
        }
      ],
      "name": "enableWhitelist",
      "outputs": [],
      "payable": false,
      "stateMutability": "nonpayable",
      "type": "function"
    },
    {
      "constant": true,
      "inputs": [
        {
          "internalType": "uint256",
          "name": "tokenId",
          "type": "uint256"
        }
      ],
      "name": "getApproved",
      "outputs": [
        {
          "internalType": "address",
          "name": "",
          "type": "address"
        }
      ],
      "payable": false,
      "stateMutability": "view",
      "type": "function"
    },
    {
      "constant": true,
      "inputs": [
        {
          "internalType": "address",
          "name": "owner",
          "type": "address"
        },
        {
          "internalType": "address",
          "name": "operator",
          "type": "address"
        }
      ],
      "name": "isApprovedForAll",
      "outputs": [
        {
          "internalType": "bool",
          "name": "",
          "type": "bool"
        }
      ],
      "payable": false,
      "stateMutability": "view",
      "type": "function"
    },
    {
      "constant": true,
      "inputs": [
        {
          "internalType": "address",
          "name": "_address",
          "type": "address"
        }
      ],
      "name": "isWhitelisted",
      "outputs": [
        {
          "internalType": "bool",
          "name": "",
          "type": "bool"
        }
      ],
      "payable": false,
      "stateMutability": "view",
      "type": "function"
    },
    {
      "constant": true,
      "inputs": [],
      "name": "name",
      "outputs": [
        {
          "internalType": "string",
          "name": "",
          "type": "string"
        }
      ],
      "payable": false,
      "stateMutability": "view",
      "type": "function"
    },
    {
      "constant": true,
      "inputs": [],
      "name": "owner",
      "outputs": [
        {
          "internalType": "address",
          "name": "",
          "type": "address"
        }
      ],
      "payable": false,
      "stateMutability": "view",
      "type": "function"
    },
    {
      "constant": true,
      "inputs": [
        {
          "internalType": "uint256",
          "name": "tokenId",
          "type": "uint256"
        }
      ],
      "name": "ownerOf",
      "outputs": [
        {
          "internalType": "address",
          "name": "",
          "type": "address"
        }
      ],
      "payable": false,
      "stateMutability": "view",
      "type": "function"
    },
    {
      "constant": false,
      "inputs": [
        {
          "internalType": "address",
          "name": "_removedAddress",
          "type": "address"
        }
      ],
      "name": "removeFromWhitelist",
      "outputs": [],
      "payable": false,
      "stateMutability": "nonpayable",
      "type": "function"
    },
    {
      "constant": false,
      "inputs": [
        {
          "internalType": "address",
          "name": "from",
          "type": "address"
        },
        {
          "internalType": "address",
          "name": "to",
          "type": "address"
        },
        {
          "internalType": "uint256",
          "name": "tokenId",
          "type": "uint256"
        }
      ],
      "name": "safeTransferFrom",
      "outputs": [],
      "payable": false,
      "stateMutability": "nonpayable",
      "type": "function"
    },
    {
      "constant": false,
      "inputs": [
        {
          "internalType": "address",
          "name": "from",
          "type": "address"
        },
        {
          "internalType": "address",
          "name": "to",
          "type": "address"
        },
        {
          "internalType": "uint256",
          "name": "tokenId",
          "type": "uint256"
        },
        {
          "internalType": "bytes",
          "name": "_data",
          "type": "bytes"
        }
      ],
      "name": "safeTransferFrom",
      "outputs": [],
      "payable": false,
      "stateMutability": "nonpayable",
      "type": "function"
    },
    {
      "constant": false,
      "inputs": [
        {
          "internalType": "address",
          "name": "to",
          "type": "address"
        },
        {
          "internalType": "bool",
          "name": "approved",
          "type": "bool"
        }
      ],
      "name": "setApprovalForAll",
      "outputs": [],
      "payable": false,
      "stateMutability": "nonpayable",
      "type": "function"
    },
    {
      "constant": true,
      "inputs": [
        {
          "internalType": "bytes4",
          "name": "interfaceId",
          "type": "bytes4"
        }
      ],
      "name": "supportsInterface",
      "outputs": [
        {
          "internalType": "bool",
          "name": "",
          "type": "bool"
        }
      ],
      "payable": false,
      "stateMutability": "view",
      "type": "function"
    },
    {
      "constant": true,
      "inputs": [],
      "name": "symbol",
      "outputs": [
        {
          "internalType": "string",
          "name": "",
          "type": "string"
        }
      ],
      "payable": false,
      "stateMutability": "view",
      "type": "function"
    },
    {
      "constant": true,
      "inputs": [
        {
          "internalType": "uint256",
          "name": "index",
          "type": "uint256"
        }
      ],
      "name": "tokenByIndex",
      "outputs": [
        {
          "internalType": "uint256",
          "name": "",
          "type": "uint256"
        }
      ],
      "payable": false,
      "stateMutability": "view",
      "type": "function"
    },
    {
      "constant": true,
      "inputs": [
        {
          "internalType": "uint256",
          "name": "",
          "type": "uint256"
        }
      ],
      "name": "tokenList",
      "outputs": [
        {
          "internalType": "uint256",
          "name": "tokenID",
          "type": "uint256"
        },
        {
          "internalType": "string",
          "name": "url",
          "type": "string"
        },
        {
          "internalType": "uint256",
          "name": "noOfCopies",
          "type": "uint256"
        },
        {
          "internalType": "uint256",
          "name": "price",
          "type": "uint256"
        }
      ],
      "payable": false,
      "stateMutability": "view",
      "type": "function"
    },
    {
      "constant": true,
      "inputs": [
        {
          "internalType": "address",
          "name": "owner",
          "type": "address"
        },
        {
          "internalType": "uint256",
          "name": "index",
          "type": "uint256"
        }
      ],
      "name": "tokenOfOwnerByIndex",
      "outputs": [
        {
          "internalType": "uint256",
          "name": "",
          "type": "uint256"
        }
      ],
      "payable": false,
      "stateMutability": "view",
      "type": "function"
    },
    {
      "constant": true,
      "inputs": [
        {
          "internalType": "uint256",
          "name": "tokenId",
          "type": "uint256"
        }
      ],
      "name": "tokenURI",
      "outputs": [
        {
          "internalType": "string",
          "name": "",
          "type": "string"
        }
      ],
      "payable": false,
      "stateMutability": "view",
      "type": "function"
    },
    {
      "constant": true,
      "inputs": [],
      "name": "totalSupply",
      "outputs": [
        {
          "internalType": "uint256",
          "name": "",
          "type": "uint256"
        }
      ],
      "payable": false,
      "stateMutability": "view",
      "type": "function"
    },
    {
      "constant": false,
      "inputs": [
        {
          "internalType": "address",
          "name": "from",
          "type": "address"
        },
        {
          "internalType": "address",
          "name": "to",
          "type": "address"
        },
        {
          "internalType": "uint256",
          "name": "tokenId",
          "type": "uint256"
        }
      ],
      "name": "transferFrom",
      "outputs": [],
      "payable": false,
      "stateMutability": "nonpayable",
      "type": "function"
    },
    {
      "constant": true,
      "inputs": [
        {
          "internalType": "uint256",
          "name": "",
          "type": "uint256"
        }
      ],
      "name": "urlList",
      "outputs": [
        {
          "internalType": "string",
          "name": "",
          "type": "string"
        }
      ],
      "payable": false,
      "stateMutability": "view",
      "type": "function"
    },
    {
      "constant": false,
      "inputs": [
        {
          "internalType": "address",
          "name": "add",
          "type": "address"
        }
      ],
      "name": "addArtist",
      "outputs": [
        {
          "internalType": "bool",
          "name": "",
          "type": "bool"
        }
      ],
      "payable": false,
      "stateMutability": "nonpayable",
      "type": "function"
    },
    {
      "constant": false,
      "inputs": [
        {
          "internalType": "address",
          "name": "add",
          "type": "address"
        }
      ],
      "name": "addBuyer",
      "outputs": [
        {
          "internalType": "bool",
          "name": "",
          "type": "bool"
        }
      ],
      "payable": false,
      "stateMutability": "nonpayable",
      "type": "function"
    },
    {
      "constant": false,
      "inputs": [
        {
          "internalType": "string",
          "name": "_url",
          "type": "string"
        },
        {
          "internalType": "uint256",
          "name": "_copies",
          "type": "uint256"
        },
        {
          "internalType": "uint256",
          "name": "price",
          "type": "uint256"
        }
      ],
      "name": "mintMyToken",
      "outputs": [
        {
          "internalType": "bool",
          "name": "",
          "type": "bool"
        }
      ],
      "payable": false,
      "stateMutability": "nonpayable",
      "type": "function"
    },
    {
      "constant": true,
      "inputs": [],
      "name": "totalToken",
      "outputs": [
        {
          "internalType": "uint256",
          "name": "",
          "type": "uint256"
        }
      ],
      "payable": false,
      "stateMutability": "view",
      "type": "function"
    },
    {
      "constant": false,
      "inputs": [
        {
          "internalType": "uint256",
          "name": "_Id",
          "type": "uint256"
        }
      ],
      "name": "getArtiFactPrice",
      "outputs": [
        {
          "internalType": "uint256",
          "name": "",
          "type": "uint256"
        }
      ],
      "payable": false,
      "stateMutability": "nonpayable",
      "type": "function"
    },
    {
      "constant": true,
      "inputs": [
        {
          "internalType": "uint256",
          "name": "_Id",
          "type": "uint256"
        }
      ],
      "name": "getArtiFact",
      "outputs": [
        {
          "components": [
            {
              "internalType": "uint256",
              "name": "tokenID",
              "type": "uint256"
            },
            {
              "internalType": "string",
              "name": "url",
              "type": "string"
            },
            {
              "internalType": "uint256",
              "name": "noOfCopies",
              "type": "uint256"
            },
            {
              "internalType": "uint256",
              "name": "price",
              "type": "uint256"
            }
          ],
          "internalType": "struct customContract.artiFact",
          "name": "",
          "type": "tuple"
        }
      ],
      "payable": false,
      "stateMutability": "view",
      "type": "function"
    },
    {
      "constant": false,
      "inputs": [
        {
          "internalType": "uint256",
          "name": "tokenID",
          "type": "uint256"
        },
        {
          "internalType": "address",
          "name": "to",
          "type": "address"
        }
      ],
      "name": "buyArtiFactInfo",
      "outputs": [
        {
          "internalType": "bool",
          "name": "",
          "type": "bool"
        }
      ],
      "payable": true,
      "stateMutability": "payable",
      "type": "function"
    }
  ],
  "bytecode": "0x60806040526001600e60006101000a81548160ff0219169083151502179055503480156200002c57600080fd5b506040518060400160405280600581526020017f636f6c6f720000000000000000000000000000000000000000000000000000008152506040518060400160405280600581526020017f434f4c4f520000000000000000000000000000000000000000000000000000008152508181620000b36301ffc9a760e01b6200017860201b60201c565b620000cb6380ac58cd60e01b6200017860201b60201c565b620000e363780e9d6360e01b6200017860201b60201c565b8160099080519060200190620000fb92919062000250565b5080600a90805190602001906200011492919062000250565b506200012d635b5e139f60e01b6200017860201b60201c565b5050505033601560006101000a81548173ffffffffffffffffffffffffffffffffffffffff021916908373ffffffffffffffffffffffffffffffffffffffff16021790555062000374565b63ffffffff60e01b817bffffffffffffffffffffffffffffffffffffffffffffffffffffffff19161415620001e4576040517f08c379a0000000000000000000000000000000000000000000000000000000008152600401620001db9062000341565b60405180910390fd5b6001600080837bffffffffffffffffffffffffffffffffffffffffffffffffffffffff19167bffffffffffffffffffffffffffffffffffffffffffffffffffffffff1916815260200190815260200160002060006101000a81548160ff02191690831515021790555050565b828054600181600116156101000203166002900490600052602060002090601f016020900481019282601f106200029357805160ff1916838001178555620002c4565b82800160010185558215620002c4579182015b82811115620002c3578251825591602001919060010190620002a6565b5b509050620002d39190620002d7565b5090565b620002fc91905b80821115620002f8576000816000905550600101620002de565b5090565b90565b60006200030e601c8362000363565b91507f4552433136353a20696e76616c696420696e74657266616365206964000000006000830152602082019050919050565b600060208201905081810360008301526200035c81620002ff565b9050919050565b600082825260208201905092915050565b61411a80620003846000396000f3fe6080604052600436106101ee5760003560e01c8063626be5671161010d57806395f2faea116100a0578063bbf898031161006f578063bbf8980314610779578063bf590021146107b6578063c87b56dd146107f3578063e43252d714610830578063e985e9c514610859576101ee565b806395f2faea146106aa5780639ead7222146106e7578063a22cb46514610727578063b88d4fde14610750576101ee565b80638ab1d681116100dc5780638ab1d681146106005780638da5cb5b1461062957806394b48c441461065457806395d89b411461067f576101ee565b8063626be567146105305780636352211e1461055b5780636c0360eb1461059857806370a08231146105c3576101ee565b80632f745c5911610185578063438aae7c11610154578063438aae7c146104495780634680926b146104865780634d287f2b146104b65780634f6ccce7146104f3576101ee565b80632f745c591461037b5780633a538ef5146103b85780633af32abf146103e357806342842e0e14610420576101ee565b8063095ea7b3116101c1578063095ea7b3146102c157806318160ddd146102ea57806323b872dd146103155780632b097fb01461033e576101ee565b806301ffc9a7146101f3578063040b65831461023057806306fdde0314610259578063081812fc14610284575b600080fd5b3480156101ff57600080fd5b5061021a60048036036102159190810190612f32565b610896565b6040516102279190613ad7565b60405180910390f35b34801561023c57600080fd5b5061025760048036036102529190810190612f09565b6108fd565b005b34801561026557600080fd5b5061026e61091a565b60405161027b9190613b2f565b60405180910390f35b34801561029057600080fd5b506102ab60048036036102a69190810190612feb565b6109bc565b6040516102b89190613a70565b60405180910390f35b3480156102cd57600080fd5b506102e860048036036102e39190810190612ecd565b610a41565b005b3480156102f657600080fd5b506102ff610bfc565b60405161030c9190613e13565b60405180910390f35b34801561032157600080fd5b5061033c60048036036103379190810190612dc7565b610c09565b005b34801561034a57600080fd5b5061036560048036036103609190810190612feb565b610c69565b6040516103729190613e13565b60405180910390f35b34801561038757600080fd5b506103a2600480360361039d9190810190612ecd565b610cdf565b6040516103af9190613e13565b60405180910390f35b3480156103c457600080fd5b506103cd610d88565b6040516103da9190613af2565b60405180910390f35b3480156103ef57600080fd5b5061040a60048036036104059190810190612d62565b610dae565b6040516104179190613ad7565b60405180910390f35b34801561042c57600080fd5b5061044760048036036104429190810190612dc7565b610e23565b005b34801561045557600080fd5b50610470600480360361046b9190810190612f84565b610e43565b60405161047d9190613ad7565b60405180910390f35b6104a0600480360361049b9190810190613014565b610fb2565b6040516104ad9190613ad7565b60405180910390f35b3480156104c257600080fd5b506104dd60048036036104d89190810190612d62565b611038565b6040516104ea9190613ad7565b60405180910390f35b3480156104ff57600080fd5b5061051a60048036036105159190810190612feb565b6110dc565b6040516105279190613e13565b60405180910390f35b34801561053c57600080fd5b50610545611146565b6040516105529190613e13565b60405180910390f35b34801561056757600080fd5b50610582600480360361057d9190810190612feb565b61115a565b60405161058f9190613a70565b60405180910390f35b3480156105a457600080fd5b506105ad61120c565b6040516105ba9190613b2f565b60405180910390f35b3480156105cf57600080fd5b506105ea60048036036105e59190810190612d62565b6112ae565b6040516105f79190613e13565b60405180910390f35b34801561060c57600080fd5b5061062760048036036106229190810190612d62565b61136d565b005b34801561063557600080fd5b5061063e6113bc565b60405161064b9190613a70565b60405180910390f35b34801561066057600080fd5b506106696113e2565b6040516106769190613a70565b60405180910390f35b34801561068b57600080fd5b50610694611408565b6040516106a19190613b2f565b60405180910390f35b3480156106b657600080fd5b506106d160048036036106cc9190810190612feb565b6114aa565b6040516106de9190613df1565b60405180910390f35b3480156106f357600080fd5b5061070e60048036036107099190810190612feb565b6115ed565b60405161071e9493929190613e2e565b60405180910390f35b34801561073357600080fd5b5061074e60048036036107499190810190612e91565b6116c2565b005b34801561075c57600080fd5b5061077760048036036107729190810190612e16565b611843565b005b34801561078557600080fd5b506107a0600480360361079b9190810190612d62565b6118a5565b6040516107ad9190613ad7565b60405180910390f35b3480156107c257600080fd5b506107dd60048036036107d89190810190612feb565b611954565b6040516107ea9190613b0d565b60405180910390f35b3480156107ff57600080fd5b5061081a60048036036108159190810190612feb565b611a0d565b6040516108279190613b2f565b60405180910390f35b34801561083c57600080fd5b5061085760048036036108529190810190612d62565b611b55565b005b34801561086557600080fd5b50610880600480360361087b9190810190612d8b565b611ba4565b60405161088d9190613ad7565b60405180910390f35b6000806000837bffffffffffffffffffffffffffffffffffffffffffffffffffffffff19167bffffffffffffffffffffffffffffffffffffffffffffffffffffffff1916815260200190815260200160002060009054906101000a900460ff169050919050565b80600e60006101000a81548160ff02191690831515021790555050565b606060098054600181600116156101000203166002900480601f0160208091040260200160405190810160405280929190818152602001828054600181600116156101000203166002900480156109b25780601f10610987576101008083540402835291602001916109b2565b820191906000526020600020905b81548152906001019060200180831161099557829003601f168201915b5050505050905090565b60006109c782611c38565b610a06576040517f08c379a00000000000000000000000000000000000000000000000000000000081526004016109fd90613cf1565b60405180910390fd5b6002600083815260200190815260200160002060009054906101000a900473ffffffffffffffffffffffffffffffffffffffff169050919050565b6000610a4c8261115a565b90508073ffffffffffffffffffffffffffffffffffffffff168373ffffffffffffffffffffffffffffffffffffffff161415610abd576040517f08c379a0000000000000000000000000000000000000000000000000000000008152600401610ab490613d71565b60405180910390fd5b8073ffffffffffffffffffffffffffffffffffffffff16610adc611caa565b73ffffffffffffffffffffffffffffffffffffffff161480610b0b5750610b0a81610b05611caa565b611ba4565b5b610b4a576040517f08c379a0000000000000000000000000000000000000000000000000000000008152600401610b4190613c71565b60405180910390fd5b826002600084815260200190815260200160002060006101000a81548173ffffffffffffffffffffffffffffffffffffffff021916908373ffffffffffffffffffffffffffffffffffffffff160217905550818373ffffffffffffffffffffffffffffffffffffffff168273ffffffffffffffffffffffffffffffffffffffff167f8c5be1e5ebec7d5bd14f71427d1e84f3dd0314c0f7b2291e5b200ac8c7c3b92560405160405180910390a4505050565b6000600780549050905090565b610c1a610c14611caa565b82611cb2565b610c59576040517f08c379a0000000000000000000000000000000000000000000000000000000008152600401610c5090613d91565b60405180910390fd5b610c64838383611d90565b505050565b600080600090505b601380549050811015610cd8578260138281548110610c8c57fe5b9060005260206000209060040201600001541415610ccb5760138181548110610cb157fe5b906000526020600020906004020160030154915050610cda565b8080600101915050610c71565b505b919050565b6000610cea836112ae565b8210610d2b576040517f08c379a0000000000000000000000000000000000000000000000000000000008152600401610d2290613b71565b60405180910390fd5b600560008473ffffffffffffffffffffffffffffffffffffffff1673ffffffffffffffffffffffffffffffffffffffff1681526020019081526020016000208281548110610d7557fe5b9060005260206000200154905092915050565b601160009054906101000a900473ffffffffffffffffffffffffffffffffffffffff1681565b6000600e60009054906101000a900460ff1615610e1957600d60008373ffffffffffffffffffffffffffffffffffffffff1673ffffffffffffffffffffffffffffffffffffffff16815260200190815260200160002060009054906101000a900460ff169050610e1e565b600190505b919050565b610e3e83838360405180602001604052806000815250611843565b505050565b600060011515610e5233610dae565b151514610e94576040517f08c379a0000000000000000000000000000000000000000000000000000000008152600401610e8b90613db1565b60405180910390fd5b60008090505b83811015610fa65760006014869080600181540180825580915050906001820390600052602060002001600090919290919091509080519060200190610ee1929190612ad8565b509050610eee3382611db4565b610ef6612b58565b604051806080016040528083815260200188815260200187815260200186815250905080601260003373ffffffffffffffffffffffffffffffffffffffff1673ffffffffffffffffffffffffffffffffffffffff168152602001908152602001600020600082015181600001556020820151816001019080519060200190610f7f929190612b80565b50604082015181600201556060820151816003015590505050508080600101915050610e9a565b50600190509392505050565b6000610fc8826010611dd590919063ffffffff16565b611007576040517f08c379a0000000000000000000000000000000000000000000000000000000008152600401610ffe90613c31565b60405180910390fd5b61100f612b58565b611018846114aa565b905061102d6110268561115a565b8486610c09565b600191505092915050565b6000601560009054906101000a900473ffffffffffffffffffffffffffffffffffffffff1673ffffffffffffffffffffffffffffffffffffffff163373ffffffffffffffffffffffffffffffffffffffff16146110ca576040517f08c379a00000000000000000000000000000000000000000000000000000000081526004016110c190613bd1565b60405180910390fd5b6110d382611e9d565b60019050919050565b60006110e6610bfc565b8210611127576040517f08c379a000000000000000000000000000000000000000000000000000000000815260040161111e90613dd1565b60405180910390fd5b6007828154811061113457fe5b90600052602060002001549050919050565b600080611151610bfc565b90508091505090565b6000806001600084815260200190815260200160002060009054906101000a900473ffffffffffffffffffffffffffffffffffffffff169050600073ffffffffffffffffffffffffffffffffffffffff168173ffffffffffffffffffffffffffffffffffffffff161415611203576040517f08c379a00000000000000000000000000000000000000000000000000000000081526004016111fa90613cb1565b60405180910390fd5b80915050919050565b6060600b8054600181600116156101000203166002900480601f0160208091040260200160405190810160405280929190818152602001828054600181600116156101000203166002900480156112a45780601f10611279576101008083540402835291602001916112a4565b820191906000526020600020905b81548152906001019060200180831161128757829003601f168201915b5050505050905090565b60008073ffffffffffffffffffffffffffffffffffffffff168273ffffffffffffffffffffffffffffffffffffffff16141561131f576040517f08c379a000000000000000000000000000000000000000000000000000000000815260040161131690613c91565b60405180910390fd5b611366600360008473ffffffffffffffffffffffffffffffffffffffff1673ffffffffffffffffffffffffffffffffffffffff168152602001908152602001600020611ef8565b9050919050565b61137681611f06565b8073ffffffffffffffffffffffffffffffffffffffff167f1f756c8b089af6b33ee121fee8badac2553a2fa89c0575ea91ff8792617746c260405160405180910390a250565b601560009054906101000a900473ffffffffffffffffffffffffffffffffffffffff1681565b601660009054906101000a900473ffffffffffffffffffffffffffffffffffffffff1681565b6060600a8054600181600116156101000203166002900480601f0160208091040260200160405190810160405280929190818152602001828054600181600116156101000203166002900480156114a05780601f10611475576101008083540402835291602001916114a0565b820191906000526020600020905b81548152906001019060200180831161148357829003601f168201915b5050505050905090565b6114b2612b58565b60008090505b6013805490508110156115e65782601382815481106114d357fe5b90600052602060002090600402016000015414156115d957601381815481106114f857fe5b906000526020600020906004020160405180608001604052908160008201548152602001600182018054600181600116156101000203166002900480601f0160208091040260200160405190810160405280929190818152602001828054600181600116156101000203166002900480156115b45780601f10611589576101008083540402835291602001916115b4565b820191906000526020600020905b81548152906001019060200180831161159757829003601f168201915b50505050508152602001600282015481526020016003820154815250509150506115e8565b80806001019150506114b8565b505b919050565b601381815481106115fa57fe5b9060005260206000209060040201600091509050806000015490806001018054600181600116156101000203166002900480601f0160208091040260200160405190810160405280929190818152602001828054600181600116156101000203166002900480156116ac5780601f10611681576101008083540402835291602001916116ac565b820191906000526020600020905b81548152906001019060200180831161168f57829003601f168201915b5050505050908060020154908060030154905084565b6116ca611caa565b73ffffffffffffffffffffffffffffffffffffffff168273ffffffffffffffffffffffffffffffffffffffff161415611738576040517f08c379a000000000000000000000000000000000000000000000000000000000815260040161172f90613c11565b60405180910390fd5b8060046000611745611caa565b73ffffffffffffffffffffffffffffffffffffffff1673ffffffffffffffffffffffffffffffffffffffff16815260200190815260200160002060008473ffffffffffffffffffffffffffffffffffffffff1673ffffffffffffffffffffffffffffffffffffffff16815260200190815260200160002060006101000a81548160ff0219169083151502179055508173ffffffffffffffffffffffffffffffffffffffff166117f2611caa565b73ffffffffffffffffffffffffffffffffffffffff167f17307eab39ab6107e8899845ad3d59bd9653f200f220920489ca2b5937696c31836040516118379190613ad7565b60405180910390a35050565b61185461184e611caa565b83611cb2565b611893576040517f08c379a000000000000000000000000000000000000000000000000000000000815260040161188a90613d91565b60405180910390fd5b61189f84848484611f61565b50505050565b6000601560009054906101000a900473ffffffffffffffffffffffffffffffffffffffff1673ffffffffffffffffffffffffffffffffffffffff163373ffffffffffffffffffffffffffffffffffffffff1614611937576040517f08c379a000000000000000000000000000000000000000000000000000000000815260040161192e90613bd1565b60405180910390fd5b61194b826010611fbd90919063ffffffff16565b60019050919050565b6014818154811061196157fe5b906000526020600020016000915090508054600181600116156101000203166002900480601f016020809104026020016040519081016040528092919081815260200182805460018160011615610100020316600290048015611a055780601f106119da57610100808354040283529160200191611a05565b820191906000526020600020905b8154815290600101906020018083116119e857829003601f168201915b505050505081565b6060611a1882611c38565b611a57576040517f08c379a0000000000000000000000000000000000000000000000000000000008152600401611a4e90613d51565b60405180910390fd5b6060600c60008481526020019081526020016000208054600181600116156101000203166002900480601f016020809104026020016040519081016040528092919081815260200182805460018160011615610100020316600290048015611b005780601f10611ad557610100808354040283529160200191611b00565b820191906000526020600020905b815481529060010190602001808311611ae357829003601f168201915b50505050509050600081511415611b295760405180602001604052806000815250915050611b50565b600b81604051602001611b3d929190613a4c565b6040516020818303038152906040529150505b919050565b611b5e81611e9d565b8073ffffffffffffffffffffffffffffffffffffffff167f75b2135d1c8c3519f3c09c43fe6527089ef09f40c7981ebf0ed46e79e79032c760405160405180910390a250565b6000600460008473ffffffffffffffffffffffffffffffffffffffff1673ffffffffffffffffffffffffffffffffffffffff16815260200190815260200160002060008373ffffffffffffffffffffffffffffffffffffffff1673ffffffffffffffffffffffffffffffffffffffff16815260200190815260200160002060009054906101000a900460ff16905092915050565b6000806001600084815260200190815260200160002060009054906101000a900473ffffffffffffffffffffffffffffffffffffffff169050600073ffffffffffffffffffffffffffffffffffffffff168173ffffffffffffffffffffffffffffffffffffffff161415915050919050565b600033905090565b6000611cbd82611c38565b611cfc576040517f08c379a0000000000000000000000000000000000000000000000000000000008152600401611cf390613c51565b60405180910390fd5b6000611d078361115a565b90508073ffffffffffffffffffffffffffffffffffffffff168473ffffffffffffffffffffffffffffffffffffffff161480611d7657508373ffffffffffffffffffffffffffffffffffffffff16611d5e846109bc565b73ffffffffffffffffffffffffffffffffffffffff16145b80611d875750611d868185611ba4565b5b91505092915050565b611d9b838383612065565b611da58382612294565b611daf8282612432565b505050565b611dbe82826124f9565b611dc88282612432565b611dd1816126ab565b5050565b60008073ffffffffffffffffffffffffffffffffffffffff168273ffffffffffffffffffffffffffffffffffffffff161415611e46576040517f08c379a0000000000000000000000000000000000000000000000000000000008152600401611e3d90613d11565b60405180910390fd5b8260000160008373ffffffffffffffffffffffffffffffffffffffff1673ffffffffffffffffffffffffffffffffffffffff16815260200190815260200160002060009054906101000a900460ff16905092915050565b6001600d60008373ffffffffffffffffffffffffffffffffffffffff1673ffffffffffffffffffffffffffffffffffffffff16815260200190815260200160002060006101000a81548160ff02191690831515021790555050565b600081600001549050919050565b6000600d60008373ffffffffffffffffffffffffffffffffffffffff1673ffffffffffffffffffffffffffffffffffffffff16815260200190815260200160002060006101000a81548160ff02191690831515021790555050565b611f6c848484611d90565b611f78848484846126f7565b611fb7576040517f08c379a0000000000000000000000000000000000000000000000000000000008152600401611fae90613b91565b60405180910390fd5b50505050565b611fc78282611dd5565b15612007576040517f08c379a0000000000000000000000000000000000000000000000000000000008152600401611ffe90613b51565b60405180910390fd5b60018260000160008373ffffffffffffffffffffffffffffffffffffffff1673ffffffffffffffffffffffffffffffffffffffff16815260200190815260200160002060006101000a81548160ff0219169083151502179055505050565b8273ffffffffffffffffffffffffffffffffffffffff166120858261115a565b73ffffffffffffffffffffffffffffffffffffffff16146120db576040517f08c379a00000000000000000000000000000000000000000000000000000000081526004016120d290613d31565b60405180910390fd5b600073ffffffffffffffffffffffffffffffffffffffff168273ffffffffffffffffffffffffffffffffffffffff16141561214b576040517f08c379a000000000000000000000000000000000000000000000000000000000815260040161214290613bf1565b60405180910390fd5b612154816128f1565b61219b600360008573ffffffffffffffffffffffffffffffffffffffff1673ffffffffffffffffffffffffffffffffffffffff1681526020019081526020016000206129af565b6121e2600360008473ffffffffffffffffffffffffffffffffffffffff1673ffffffffffffffffffffffffffffffffffffffff1681526020019081526020016000206129d2565b816001600083815260200190815260200160002060006101000a81548173ffffffffffffffffffffffffffffffffffffffff021916908373ffffffffffffffffffffffffffffffffffffffff160217905550808273ffffffffffffffffffffffffffffffffffffffff168473ffffffffffffffffffffffffffffffffffffffff167fddf252ad1be2c89b69c2b068fc378daa952ba7f163c4a11628f55a4df523b3ef60405160405180910390a4505050565b60006122ec6001600560008673ffffffffffffffffffffffffffffffffffffffff1673ffffffffffffffffffffffffffffffffffffffff168152602001908152602001600020805490506129e890919063ffffffff16565b90506000600660008481526020019081526020016000205490508181146123d9576000600560008673ffffffffffffffffffffffffffffffffffffffff1673ffffffffffffffffffffffffffffffffffffffff168152602001908152602001600020838154811061235957fe5b9060005260206000200154905080600560008773ffffffffffffffffffffffffffffffffffffffff1673ffffffffffffffffffffffffffffffffffffffff16815260200190815260200160002083815481106123b157fe5b9060005260206000200181905550816006600083815260200190815260200160002081905550505b600560008573ffffffffffffffffffffffffffffffffffffffff1673ffffffffffffffffffffffffffffffffffffffff16815260200190815260200160002080548091906001900361242b9190612c00565b5050505050565b600560008373ffffffffffffffffffffffffffffffffffffffff1673ffffffffffffffffffffffffffffffffffffffff168152602001908152602001600020805490506006600083815260200190815260200160002081905550600560008373ffffffffffffffffffffffffffffffffffffffff1673ffffffffffffffffffffffffffffffffffffffff1681526020019081526020016000208190806001815401808255809150509060018203906000526020600020016000909192909190915055505050565b600073ffffffffffffffffffffffffffffffffffffffff168273ffffffffffffffffffffffffffffffffffffffff161415612569576040517f08c379a000000000000000000000000000000000000000000000000000000000815260040161256090613cd1565b60405180910390fd5b61257281611c38565b156125b2576040517f08c379a00000000000000000000000000000000000000000000000000000000081526004016125a990613bb1565b60405180910390fd5b816001600083815260200190815260200160002060006101000a81548173ffffffffffffffffffffffffffffffffffffffff021916908373ffffffffffffffffffffffffffffffffffffffff16021790555061264b600360008473ffffffffffffffffffffffffffffffffffffffff1673ffffffffffffffffffffffffffffffffffffffff1681526020019081526020016000206129d2565b808273ffffffffffffffffffffffffffffffffffffffff16600073ffffffffffffffffffffffffffffffffffffffff167fddf252ad1be2c89b69c2b068fc378daa952ba7f163c4a11628f55a4df523b3ef60405160405180910390a45050565b6007805490506008600083815260200190815260200160002081905550600781908060018154018082558091505090600182039060005260206000200160009091929091909150555050565b60006127188473ffffffffffffffffffffffffffffffffffffffff16612a32565b61272557600190506128e9565b600060608573ffffffffffffffffffffffffffffffffffffffff168673ffffffffffffffffffffffffffffffffffffffff1663150b7a02905060e01b612769611caa565b89888860405160240161277f9493929190613a8b565b604051602081830303815290604052907bffffffffffffffffffffffffffffffffffffffffffffffffffffffff19166020820180517bffffffffffffffffffffffffffffffffffffffffffffffffffffffff83818316178352505050506040516127e99190613a35565b6000604051808303816000865af19150503d8060008114612826576040519150601f19603f3d011682016040523d82523d6000602084013e61282b565b606091505b509150915081612883576000815111156128485780518082602001fd5b6040517f08c379a000000000000000000000000000000000000000000000000000000000815260040161287a90613b91565b60405180910390fd5b6000818060200190516128999190810190612f5b565b905063150b7a0260e01b7bffffffffffffffffffffffffffffffffffffffffffffffffffffffff1916817bffffffffffffffffffffffffffffffffffffffffffffffffffffffff19161493505050505b949350505050565b600073ffffffffffffffffffffffffffffffffffffffff166002600083815260200190815260200160002060009054906101000a900473ffffffffffffffffffffffffffffffffffffffff1673ffffffffffffffffffffffffffffffffffffffff16146129ac5760006002600083815260200190815260200160002060006101000a81548173ffffffffffffffffffffffffffffffffffffffff021916908373ffffffffffffffffffffffffffffffffffffffff1602179055505b50565b6129c7600182600001546129e890919063ffffffff16565b816000018190555050565b6001816000016000828254019250508190555050565b6000612a2a83836040518060400160405280601e81526020017f536166654d6174683a207375627472616374696f6e206f766572666c6f770000815250612a7d565b905092915050565b60008060007fc5d2460186f7233c927e7db2dcc703c0e500b653ca82273b7bfad8045d85a47060001b9050833f9150808214158015612a7457506000801b8214155b92505050919050565b6000838311158290612ac5576040517f08c379a0000000000000000000000000000000000000000000000000000000008152600401612abc9190613b2f565b60405180910390fd5b5060008385039050809150509392505050565b828054600181600116156101000203166002900490600052602060002090601f016020900481019282601f10612b1957805160ff1916838001178555612b47565b82800160010185558215612b47579182015b82811115612b46578251825591602001919060010190612b2b565b5b509050612b549190612c2c565b5090565b6040518060800160405280600081526020016060815260200160008152602001600081525090565b828054600181600116156101000203166002900490600052602060002090601f016020900481019282601f10612bc157805160ff1916838001178555612bef565b82800160010185558215612bef579182015b82811115612bee578251825591602001919060010190612bd3565b5b509050612bfc9190612c2c565b5090565b815481835581811115612c2757818360005260206000209182019101612c269190612c2c565b5b505050565b612c4e91905b80821115612c4a576000816000905550600101612c32565b5090565b90565b600081359050612c608161407b565b92915050565b600081359050612c7581614092565b92915050565b600081359050612c8a816140a9565b92915050565b600081519050612c9f816140a9565b92915050565b600082601f830112612cb657600080fd5b8135612cc9612cc482613ea7565b613e7a565b91508082526020830160208301858383011115612ce557600080fd5b612cf0838284614028565b50505092915050565b600082601f830112612d0a57600080fd5b8135612d1d612d1882613ed3565b613e7a565b91508082526020830160208301858383011115612d3957600080fd5b612d44838284614028565b50505092915050565b600081359050612d5c816140c0565b92915050565b600060208284031215612d7457600080fd5b6000612d8284828501612c51565b91505092915050565b60008060408385031215612d9e57600080fd5b6000612dac85828601612c51565b9250506020612dbd85828601612c51565b9150509250929050565b600080600060608486031215612ddc57600080fd5b6000612dea86828701612c51565b9350506020612dfb86828701612c51565b9250506040612e0c86828701612d4d565b9150509250925092565b60008060008060808587031215612e2c57600080fd5b6000612e3a87828801612c51565b9450506020612e4b87828801612c51565b9350506040612e5c87828801612d4d565b925050606085013567ffffffffffffffff811115612e7957600080fd5b612e8587828801612ca5565b91505092959194509250565b60008060408385031215612ea457600080fd5b6000612eb285828601612c51565b9250506020612ec385828601612c66565b9150509250929050565b60008060408385031215612ee057600080fd5b6000612eee85828601612c51565b9250506020612eff85828601612d4d565b9150509250929050565b600060208284031215612f1b57600080fd5b6000612f2984828501612c66565b91505092915050565b600060208284031215612f4457600080fd5b6000612f5284828501612c7b565b91505092915050565b600060208284031215612f6d57600080fd5b6000612f7b84828501612c90565b91505092915050565b600080600060608486031215612f9957600080fd5b600084013567ffffffffffffffff811115612fb357600080fd5b612fbf86828701612cf9565b9350506020612fd086828701612d4d565b9250506040612fe186828701612d4d565b9150509250925092565b600060208284031215612ffd57600080fd5b600061300b84828501612d4d565b91505092915050565b6000806040838503121561302757600080fd5b600061303585828601612d4d565b925050602061304685828601612c51565b9150509250929050565b61305981613f90565b82525050565b61306881613f7e565b82525050565b61307781613fa2565b82525050565b600061308882613f14565b6130928185613f35565b93506130a2818560208601614037565b6130ab8161406a565b840191505092915050565b60006130c182613f14565b6130cb8185613f46565b93506130db818560208601614037565b80840191505092915050565b6130f081614004565b82525050565b600061310182613f2a565b61310b8185613f62565b935061311b818560208601614037565b6131248161406a565b840191505092915050565b600061313a82613f2a565b6131448185613f73565b9350613154818560208601614037565b80840191505092915050565b600061316b82613f1f565b6131758185613f51565b9350613185818560208601614037565b61318e8161406a565b840191505092915050565b60006131a482613f1f565b6131ae8185613f62565b93506131be818560208601614037565b6131c78161406a565b840191505092915050565b6000815460018116600081146131ef576001811461321457613258565b607f60028304166132008187613f73565b955060ff1983168652808601935050613258565b600282046132228187613f73565b955061322d85613eff565b60005b8281101561324f57815481890152600182019150602081019050613230565b82880195505050505b505092915050565b600061326d601f83613f62565b91507f526f6c65733a206163636f756e7420616c72656164792068617320726f6c65006000830152602082019050919050565b60006132ad602b83613f62565b91507f455243373231456e756d657261626c653a206f776e657220696e646578206f7560008301527f74206f6620626f756e64730000000000000000000000000000000000000000006020830152604082019050919050565b6000613313603283613f62565b91507f4552433732313a207472616e7366657220746f206e6f6e20455243373231526560008301527f63656976657220696d706c656d656e74657200000000000000000000000000006020830152604082019050919050565b6000613379601c83613f62565b91507f4552433732313a20746f6b656e20616c7265616479206d696e746564000000006000830152602082019050919050565b60006133b9600c83613f62565b91507f616363657373206572726f7200000000000000000000000000000000000000006000830152602082019050919050565b60006133f9602483613f62565b91507f4552433732313a207472616e7366657220746f20746865207a65726f2061646460008301527f72657373000000000000000000000000000000000000000000000000000000006020830152604082019050919050565b600061345f601983613f62565b91507f4552433732313a20617070726f766520746f2063616c6c6572000000000000006000830152602082019050919050565b600061349f601783613f62565b91507f4275796572206973206e6f7420726567697374657265640000000000000000006000830152602082019050919050565b60006134df602c83613f62565b91507f4552433732313a206f70657261746f7220717565727920666f72206e6f6e657860008301527f697374656e7420746f6b656e00000000000000000000000000000000000000006020830152604082019050919050565b6000613545603883613f62565b91507f4552433732313a20617070726f76652063616c6c6572206973206e6f74206f7760008301527f6e6572206e6f7220617070726f76656420666f7220616c6c00000000000000006020830152604082019050919050565b60006135ab602a83613f62565b91507f4552433732313a2062616c616e636520717565727920666f7220746865207a6560008301527f726f2061646472657373000000000000000000000000000000000000000000006020830152604082019050919050565b6000613611602983613f62565b91507f4552433732313a206f776e657220717565727920666f72206e6f6e657869737460008301527f656e7420746f6b656e00000000000000000000000000000000000000000000006020830152604082019050919050565b6000613677602083613f62565b91507f4552433732313a206d696e7420746f20746865207a65726f20616464726573736000830152602082019050919050565b60006136b7602c83613f62565b91507f4552433732313a20617070726f76656420717565727920666f72206e6f6e657860008301527f697374656e7420746f6b656e00000000000000000000000000000000000000006020830152604082019050919050565b600061371d602283613f62565b91507f526f6c65733a206163636f756e7420697320746865207a65726f20616464726560008301527f73730000000000000000000000000000000000000000000000000000000000006020830152604082019050919050565b6000613783602983613f62565b91507f4552433732313a207472616e73666572206f6620746f6b656e2074686174206960008301527f73206e6f74206f776e00000000000000000000000000000000000000000000006020830152604082019050919050565b60006137e9602f83613f62565b91507f4552433732314d657461646174613a2055524920717565727920666f72206e6f60008301527f6e6578697374656e7420746f6b656e00000000000000000000000000000000006020830152604082019050919050565b600061384f602183613f62565b91507f4552433732313a20617070726f76616c20746f2063757272656e74206f776e6560008301527f72000000000000000000000000000000000000000000000000000000000000006020830152604082019050919050565b60006138b5603183613f62565b91507f4552433732313a207472616e736665722063616c6c6572206973206e6f74206f60008301527f776e6572206e6f7220617070726f7665640000000000000000000000000000006020830152604082019050919050565b600061391b601a83613f62565b91507f6e6f7420617574686f72697a656420666f72206d696e74696e670000000000006000830152602082019050919050565b600061395b602c83613f62565b91507f455243373231456e756d657261626c653a20676c6f62616c20696e646578206f60008301527f7574206f6620626f756e647300000000000000000000000000000000000000006020830152604082019050919050565b60006080830160008301516139cc6000860182613a17565b50602083015184820360208601526139e48282613160565b91505060408301516139f96040860182613a17565b506060830151613a0c6060860182613a17565b508091505092915050565b613a2081613ffa565b82525050565b613a2f81613ffa565b82525050565b6000613a4182846130b6565b915081905092915050565b6000613a5882856131d2565b9150613a64828461312f565b91508190509392505050565b6000602082019050613a85600083018461305f565b92915050565b6000608082019050613aa06000830187613050565b613aad602083018661305f565b613aba6040830185613a26565b8181036060830152613acc818461307d565b905095945050505050565b6000602082019050613aec600083018461306e565b92915050565b6000602082019050613b0760008301846130e7565b92915050565b60006020820190508181036000830152613b278184613199565b905092915050565b60006020820190508181036000830152613b4981846130f6565b905092915050565b60006020820190508181036000830152613b6a81613260565b9050919050565b60006020820190508181036000830152613b8a816132a0565b9050919050565b60006020820190508181036000830152613baa81613306565b9050919050565b60006020820190508181036000830152613bca8161336c565b9050919050565b60006020820190508181036000830152613bea816133ac565b9050919050565b60006020820190508181036000830152613c0a816133ec565b9050919050565b60006020820190508181036000830152613c2a81613452565b9050919050565b60006020820190508181036000830152613c4a81613492565b9050919050565b60006020820190508181036000830152613c6a816134d2565b9050919050565b60006020820190508181036000830152613c8a81613538565b9050919050565b60006020820190508181036000830152613caa8161359e565b9050919050565b60006020820190508181036000830152613cca81613604565b9050919050565b60006020820190508181036000830152613cea8161366a565b9050919050565b60006020820190508181036000830152613d0a816136aa565b9050919050565b60006020820190508181036000830152613d2a81613710565b9050919050565b60006020820190508181036000830152613d4a81613776565b9050919050565b60006020820190508181036000830152613d6a816137dc565b9050919050565b60006020820190508181036000830152613d8a81613842565b9050919050565b60006020820190508181036000830152613daa816138a8565b9050919050565b60006020820190508181036000830152613dca8161390e565b9050919050565b60006020820190508181036000830152613dea8161394e565b9050919050565b60006020820190508181036000830152613e0b81846139b4565b905092915050565b6000602082019050613e286000830184613a26565b92915050565b6000608082019050613e436000830187613a26565b8181036020830152613e558186613199565b9050613e646040830185613a26565b613e716060830184613a26565b95945050505050565b6000604051905081810181811067ffffffffffffffff82111715613e9d57600080fd5b8060405250919050565b600067ffffffffffffffff821115613ebe57600080fd5b601f19601f8301169050602081019050919050565b600067ffffffffffffffff821115613eea57600080fd5b601f19601f8301169050602081019050919050565b60008190508160005260206000209050919050565b600081519050919050565b600081519050919050565b600081519050919050565b600082825260208201905092915050565b600081905092915050565b600082825260208201905092915050565b600082825260208201905092915050565b600081905092915050565b6000613f8982613fda565b9050919050565b6000613f9b82613fda565b9050919050565b60008115159050919050565b60007fffffffff0000000000000000000000000000000000000000000000000000000082169050919050565b600073ffffffffffffffffffffffffffffffffffffffff82169050919050565b6000819050919050565b600061400f82614016565b9050919050565b600061402182613fda565b9050919050565b82818337600083830152505050565b60005b8381101561405557808201518184015260208101905061403a565b83811115614064576000848401525b50505050565b6000601f19601f8301169050919050565b61408481613f7e565b811461408f57600080fd5b50565b61409b81613fa2565b81146140a657600080fd5b50565b6140b281613fae565b81146140bd57600080fd5b50565b6140c981613ffa565b81146140d457600080fd5b5056fea365627a7a7231582056244e0e3597c34e2a015d40b351b4eb24ef1263d2b0f573c71c9a82da946ac26c6578706572696d656e74616cf564736f6c63430005100040",
  "source": "pragma solidity >=0.4.22 <0.9.0;\r\npragma experimental ABIEncoderV2;\r\nimport \"@openzeppelin/contracts/token/ERC721/ERC721Full.sol\";\r\nimport \"@openzeppelin/contracts/access/Roles.sol\";\r\n//import \"@openzeppelin/contracts/ownership/Ownable.sol\";\r\n\r\n\r\n\r\n\r\ncontract Artist  {\r\n    /*address owner;\r\n    constructor() public{\r\n      owner=msg.sender;\r\n\r\n    }*/\r\n    // Mapping of address to boolean indicating whether the address is whitelisted\r\n    mapping(address => bool) private whitelistMap;\r\n\r\n    // flag controlling whether whitelist is enabled.\r\n    bool private whitelistEnabled = true;\r\n\r\n    event AddToWhitelist(address indexed _newAddress);\r\n    event RemoveFromWhitelist(address indexed _removedAddress);\r\n\r\n    /**\r\n   * @dev Enable or disable the whitelist\r\n   * @param _enabled bool of whether to enable the whitelist.\r\n   */\r\n    function enableWhitelist(bool _enabled) public  {\r\n        whitelistEnabled = _enabled;\r\n    }\r\n\r\n    /**\r\n   * @dev Adds the provided address to the whitelist\r\n   * @param _newAddress address to be added to the whitelist\r\n   */\r\n    function addToWhitelist(address _newAddress) public  {\r\n        _whitelist(_newAddress);\r\n        emit AddToWhitelist(_newAddress);\r\n    }\r\n\r\n    /**\r\n   * @dev Removes the provided address to the whitelist\r\n   * @param _removedAddress address to be removed from the whitelist\r\n   */ \r\n     function removeFromWhitelist(address _removedAddress) public  {\r\n        _unWhitelist(_removedAddress);\r\n        emit RemoveFromWhitelist(_removedAddress);\r\n    }\r\n\r\n    /**\r\n   * @dev Returns whether the address is whitelisted\r\n   * @param _address address to check\r\n   * @return bool\r\n   */\r\n    function isWhitelisted(address _address) public view returns (bool) {\r\n        if (whitelistEnabled) {\r\n            return whitelistMap[_address];\r\n        } else {\r\n            return true;\r\n        }\r\n    }\r\n\r\n    /**\r\n   * @dev Internal function for removing an address from the whitelist\r\n   * @param _removedAddress address to unwhitelisted\r\n   */\r\n    function _unWhitelist(address _removedAddress) internal {\r\n        whitelistMap[_removedAddress] = false;\r\n    }\r\n\r\n    /**\r\n   * @dev Internal function for adding the provided address to the whitelist\r\n   * @param _newAddress address to be added to the whitelist\r\n   */\r\n    function _whitelist(address _newAddress) internal {\r\n        whitelistMap[_newAddress] = true;\r\n    }\r\n}\r\n\r\n\r\n\r\n\r\n\r\n\r\n\r\ncontract customContract is ERC721Full,Artist{\r\n\r\nusing Roles for Roles.Role;\r\n\r\nRoles.Role private artist;\r\nRoles.Role private buyer;\r\n\r\nArtist public authorizedArtist;\r\n\r\n\r\n\r\n\r\nstruct artiFact{\r\n    uint tokenID;\r\n    string url;\r\n    uint noOfCopies;\r\n    uint price;\r\n}\r\n\r\n\r\n\r\n\r\n//mapping(address=>buyerRequest) requestLog;\r\n\r\n\r\nmapping(address=>artiFact) Records;\r\nartiFact[] public tokenList;\r\nstring[] public urlList;\r\n\r\n\r\n\r\n \r\naddress public owner ;\r\naddress public artistArray;\r\n\r\n  constructor() ERC721Full(\"color\",\"COLOR\") public {\r\n      owner=msg.sender;\r\n  }\r\n  \r\nfunction addArtist(address add) public returns (bool)\r\n{\r\n    require(msg.sender==owner,\"access error\");\r\n   // authorizedArtist.\r\n    _whitelist(add);\r\n    //artist.add(add);\r\n    return true;\r\n}\r\n\r\n\r\nfunction addBuyer(address add) public returns (bool)\r\n{ \r\n    require(msg.sender==owner,\"access error\");\r\n    buyer.add(add);\r\n    return true;\r\n}\r\n\r\n\r\nfunction mintMyToken(string memory  _url,uint  _copies,uint price) public returns(bool){\r\n\r\n   require(isWhitelisted(msg.sender)==true,\"not authorized for minting\");\r\n   for(uint i=0;i<_copies;i++){\r\n    uint _id=urlList.push(_url);\r\n    _mint(msg.sender,_id);\r\n    artiFact memory tempArtifact= artiFact(_id,_url,_copies,price);\r\n    Records[msg.sender]=tempArtifact; \r\n   }\r\n    return true;\r\n\r\n   \r\n\r\n  /*  require(artist.has(msg.sender),'artist is not registered yet');\r\n    uint _id=urlList.push(_url);\r\n    _mint(msg.sender,_id);\r\n    artiFact memory tempArtifact= artiFact(_id,_url,_copies,price);\r\n   // tempArtifact.tokenID=_id;\r\n   // tempArtifact.url=_url;\r\n    //tempArtifact.noOfCopies=_copies;\r\n    //(_id,_url,_copies)\r\n    Records[msg.sender]=tempArtifact;\r\n    return true;\r\n  */\r\n}\r\n\r\nfunction totalToken() public view  returns(uint){\r\n    uint num=totalSupply();\r\n    return num;\r\n}\r\n\r\nfunction getArtiFactPrice(uint _Id) external returns(uint )\r\n{\r\n    for(uint i=0;i<tokenList.length;i++)\r\n    {\r\n        if(tokenList[i].tokenID==_Id)\r\n        {\r\n            return tokenList[i].price;\r\n        }\r\n    }\r\n}\r\n\r\n\r\nfunction getArtiFact(uint _Id) public view returns(artiFact memory )\r\n{\r\n    for(uint i=0;i<tokenList.length;i++)\r\n    {\r\n        if(tokenList[i].tokenID==_Id)\r\n        {\r\n            return tokenList[i];\r\n        }\r\n    }\r\n}\r\n\r\nfunction buyArtiFactInfo(uint tokenID,address to)public payable returns(bool){\r\n    require(buyer.has(to),'Buyer is not registered');\r\n    artiFact memory temp=getArtiFact(tokenID);\r\n    transferFrom(ownerOf(tokenID),to,tokenID);\r\n  //  require(msg.value>=temp.price,'insufficient amount');\r\n  //  buyerRequest memory tempRequest=buyerRequest(tokenID,msg.value,msg.sender);\r\n\r\n    return true;  \r\n}\r\n\r\n  \r\n}\r\n\r\n\r\n\r\n\r\n",
  "sourcePath": "C:/Users/Sanan/contracts/test2/contracts/customContract.sol",
  "compiler": {
    "name": "solc",
    "version": "0.5.16+commit.9c3226ce.Emscripten.clang"
  },
  "schemaVersion": "3.4.0",
  "updatedAt": "2021-05-19T11:44:03.616Z",
  "networkType": "ethereum",
  "devdoc": {
    "methods": {
      "addToWhitelist(address)": {
        "details": "Adds the provided address to the whitelist",
        "params": {
          "_newAddress": "address to be added to the whitelist"
        }
      },
      "approve(address,uint256)": {
        "details": "Approves another address to transfer the given token ID The zero address indicates there is no approved address. There can only be one approved address per token at a given time. Can only be called by the token owner or an approved operator.",
        "params": {
          "to": "address to be approved for the given token ID",
          "tokenId": "uint256 ID of the token to be approved"
        }
      },
      "balanceOf(address)": {
        "details": "Gets the balance of the specified address.",
        "params": {
          "owner": "address to query the balance of"
        },
        "return": "uint256 representing the amount owned by the passed address"
      },
      "baseURI()": {
        "details": "Returns the base URI set via {_setBaseURI}. This will be automatically added as a preffix in {tokenURI} to each token's URI, when they are non-empty.    * _Available since v2.5.0._"
      },
      "enableWhitelist(bool)": {
        "details": "Enable or disable the whitelist",
        "params": {
          "_enabled": "bool of whether to enable the whitelist."
        }
      },
      "getApproved(uint256)": {
        "details": "Gets the approved address for a token ID, or zero if no address set Reverts if the token ID does not exist.",
        "params": {
          "tokenId": "uint256 ID of the token to query the approval of"
        },
        "return": "address currently approved for the given token ID"
      },
      "isApprovedForAll(address,address)": {
        "details": "Tells whether an operator is approved by a given owner.",
        "params": {
          "operator": "operator address which you want to query the approval of",
          "owner": "owner address which you want to query the approval of"
        },
        "return": "bool whether the given operator is approved by the given owner"
      },
      "isWhitelisted(address)": {
        "details": "Returns whether the address is whitelisted",
        "params": {
          "_address": "address to check"
        },
        "return": "bool"
      },
      "name()": {
        "details": "Gets the token name.",
        "return": "string representing the token name"
      },
      "ownerOf(uint256)": {
        "details": "Gets the owner of the specified token ID.",
        "params": {
          "tokenId": "uint256 ID of the token to query the owner of"
        },
        "return": "address currently marked as the owner of the given token ID"
      },
      "removeFromWhitelist(address)": {
        "details": "Removes the provided address to the whitelist",
        "params": {
          "_removedAddress": "address to be removed from the whitelist"
        }
      },
      "safeTransferFrom(address,address,uint256)": {
        "details": "Safely transfers the ownership of a given token ID to another address If the target address is a contract, it must implement {IERC721Receiver-onERC721Received}, which is called upon a safe transfer, and return the magic value `bytes4(keccak256(\"onERC721Received(address,address,uint256,bytes)\"))`; otherwise, the transfer is reverted. Requires the msg.sender to be the owner, approved, or operator",
        "params": {
          "from": "current owner of the token",
          "to": "address to receive the ownership of the given token ID",
          "tokenId": "uint256 ID of the token to be transferred"
        }
      },
      "safeTransferFrom(address,address,uint256,bytes)": {
        "details": "Safely transfers the ownership of a given token ID to another address If the target address is a contract, it must implement {IERC721Receiver-onERC721Received}, which is called upon a safe transfer, and return the magic value `bytes4(keccak256(\"onERC721Received(address,address,uint256,bytes)\"))`; otherwise, the transfer is reverted. Requires the _msgSender() to be the owner, approved, or operator",
        "params": {
          "_data": "bytes data to send along with a safe transfer check",
          "from": "current owner of the token",
          "to": "address to receive the ownership of the given token ID",
          "tokenId": "uint256 ID of the token to be transferred"
        }
      },
      "setApprovalForAll(address,bool)": {
        "details": "Sets or unsets the approval of a given operator An operator is allowed to transfer all tokens of the sender on their behalf.",
        "params": {
          "approved": "representing the status of the approval to be set",
          "to": "operator address to set the approval"
        }
      },
      "supportsInterface(bytes4)": {
        "details": "See {IERC165-supportsInterface}.     * Time complexity O(1), guaranteed to always use less than 30 000 gas."
      },
      "symbol()": {
        "details": "Gets the token symbol.",
        "return": "string representing the token symbol"
      },
      "tokenByIndex(uint256)": {
        "details": "Gets the token ID at a given index of all the tokens in this contract Reverts if the index is greater or equal to the total number of tokens.",
        "params": {
          "index": "uint256 representing the index to be accessed of the tokens list"
        },
        "return": "uint256 token ID at the given index of the tokens list"
      },
      "tokenOfOwnerByIndex(address,uint256)": {
        "details": "Gets the token ID at a given index of the tokens list of the requested owner.",
        "params": {
          "index": "uint256 representing the index to be accessed of the requested tokens list",
          "owner": "address owning the tokens list to be accessed"
        },
        "return": "uint256 token ID at the given index of the tokens list owned by the requested address"
      },
      "tokenURI(uint256)": {
        "details": "Returns the URI for a given token ID. May return an empty string.     * If the token's URI is non-empty and a base URI was set (via {_setBaseURI}), it will be added to the token ID's URI as a prefix.     * Reverts if the token ID does not exist."
      },
      "totalSupply()": {
        "details": "Gets the total amount of tokens stored by the contract.",
        "return": "uint256 representing the total amount of tokens"
      },
      "transferFrom(address,address,uint256)": {
        "details": "Transfers the ownership of a given token ID to another address. Usage of this method is discouraged, use {safeTransferFrom} whenever possible. Requires the msg.sender to be the owner, approved, or operator.",
        "params": {
          "from": "current owner of the token",
          "to": "address to receive the ownership of the given token ID",
          "tokenId": "uint256 ID of the token to be transferred"
        }
      }
    }
  },
  "userdoc": {
    "methods": {}
  }
}