{
  "contractName": "escrow",
  "abi": [
    {
      "inputs": [],
      "payable": false,
      "stateMutability": "nonpayable",
      "type": "constructor"
    },
    {
      "constant": false,
      "inputs": [
        {
          "internalType": "address",
          "name": "add",
          "type": "address"
        }
      ],
      "name": "setup",
      "outputs": [
        {
          "internalType": "bool",
          "name": "",
          "type": "bool"
        }
      ],
      "payable": false,
      "stateMutability": "nonpayable",
      "type": "function"
    },
    {
      "constant": false,
      "inputs": [
        {
          "internalType": "uint256",
          "name": "_tokenID",
          "type": "uint256"
        },
        {
          "internalType": "address",
          "name": "add",
          "type": "address"
        }
      ],
      "name": "buyerRequest",
      "outputs": [
        {
          "internalType": "bool",
          "name": "",
          "type": "bool"
        }
      ],
      "payable": false,
      "stateMutability": "nonpayable",
      "type": "function"
    },
    {
      "constant": false,
      "inputs": [
        {
          "internalType": "string",
          "name": "_url",
          "type": "string"
        },
        {
          "internalType": "uint256",
          "name": "_copies",
          "type": "uint256"
        },
        {
          "internalType": "uint256",
          "name": "price",
          "type": "uint256"
        }
      ],
      "name": "minting",
      "outputs": [
        {
          "internalType": "bool",
          "name": "",
          "type": "bool"
        }
      ],
      "payable": false,
      "stateMutability": "nonpayable",
      "type": "function"
    }
  ],
  "bytecode": "0x608060405234801561001057600080fd5b5061085b806100206000396000f3fe608060405234801561001057600080fd5b50600436106100415760003560e01c806363984b0b1461004657806366d382031461007657806383e03d4a146100a6575b600080fd5b610060600480360361005b9190810190610584565b6100d6565b60405161006d9190610626565b60405180910390f35b610090600480360361008b91908101906104a2565b610285565b60405161009d9190610626565b60405180910390f35b6100c060048036036100bb919081019061051d565b610338565b6040516100cd9190610626565b60405180910390f35b600080600160009054906101000a900473ffffffffffffffffffffffffffffffffffffffff1673ffffffffffffffffffffffffffffffffffffffff16636352211e856040518263ffffffff1660e01b8152600401610134919061067f565b60206040518083038186803b15801561014c57600080fd5b505afa158015610160573d6000803e3d6000fd5b505050506040513d601f19601f8201168201806040525061018491908101906104cb565b9050600160009054906101000a900473ffffffffffffffffffffffffffffffffffffffff1673ffffffffffffffffffffffffffffffffffffffff16634680926b85856040518363ffffffff1660e01b81526004016101e392919061069a565b602060405180830381600087803b1580156101fd57600080fd5b505af1158015610211573d6000803e3d6000fd5b505050506040513d601f19601f8201168201806040525061023591908101906104f4565b5083600260003373ffffffffffffffffffffffffffffffffffffffff1673ffffffffffffffffffffffffffffffffffffffff16815260200190815260200160002081905550600191505092915050565b6000816000806101000a81548173ffffffffffffffffffffffffffffffffffffffff021916908373ffffffffffffffffffffffffffffffffffffffff16021790555060008060009054906101000a900473ffffffffffffffffffffffffffffffffffffffff16905080600160006101000a81548173ffffffffffffffffffffffffffffffffffffffff021916908373ffffffffffffffffffffffffffffffffffffffff1602179055506001915050919050565b600080600160009054906101000a900473ffffffffffffffffffffffffffffffffffffffff1673ffffffffffffffffffffffffffffffffffffffff1663438aae7c8686866040518463ffffffff1660e01b815260040161039a93929190610641565b602060405180830381600087803b1580156103b457600080fd5b505af11580156103c8573d6000803e3d6000fd5b505050506040513d601f19601f820116820180604052506103ec91908101906104f4565b905060019150509392505050565b600081359050610409816107d3565b92915050565b60008151905061041e816107d3565b92915050565b600081519050610433816107ea565b92915050565b600082601f83011261044a57600080fd5b813561045d610458826106f0565b6106c3565b9150808252602083016020830185838301111561047957600080fd5b610484838284610780565b50505092915050565b60008135905061049c81610801565b92915050565b6000602082840312156104b457600080fd5b60006104c2848285016103fa565b91505092915050565b6000602082840312156104dd57600080fd5b60006104eb8482850161040f565b91505092915050565b60006020828403121561050657600080fd5b600061051484828501610424565b91505092915050565b60008060006060848603121561053257600080fd5b600084013567ffffffffffffffff81111561054c57600080fd5b61055886828701610439565b93505060206105698682870161048d565b925050604061057a8682870161048d565b9150509250925092565b6000806040838503121561059757600080fd5b60006105a58582860161048d565b92505060206105b6858286016103fa565b9150509250929050565b6105c981610738565b82525050565b6105d88161074a565b82525050565b60006105e98261071c565b6105f38185610727565b935061060381856020860161078f565b61060c816107c2565b840191505092915050565b61062081610776565b82525050565b600060208201905061063b60008301846105cf565b92915050565b6000606082019050818103600083015261065b81866105de565b905061066a6020830185610617565b6106776040830184610617565b949350505050565b60006020820190506106946000830184610617565b92915050565b60006040820190506106af6000830185610617565b6106bc60208301846105c0565b9392505050565b6000604051905081810181811067ffffffffffffffff821117156106e657600080fd5b8060405250919050565b600067ffffffffffffffff82111561070757600080fd5b601f19601f8301169050602081019050919050565b600081519050919050565b600082825260208201905092915050565b600061074382610756565b9050919050565b60008115159050919050565b600073ffffffffffffffffffffffffffffffffffffffff82169050919050565b6000819050919050565b82818337600083830152505050565b60005b838110156107ad578082015181840152602081019050610792565b838111156107bc576000848401525b50505050565b6000601f19601f8301169050919050565b6107dc81610738565b81146107e757600080fd5b50565b6107f38161074a565b81146107fe57600080fd5b50565b61080a81610776565b811461081557600080fd5b5056fea365627a7a72315820c88f09a080f04eb424f34a4aa15280e02317a6d01ea54b038aae4b58a8ce8a796c6578706572696d656e74616cf564736f6c63430005100040",
  "source": "\r\npragma solidity >=0.4.22 <0.9.0;\r\npragma experimental ABIEncoderV2;\r\nimport \"./customContract.sol\";\r\n\r\n\r\n\r\ncontract escrow{\r\n\r\n\r\n     address acessingContract;\r\n     customContract tempColor;\r\n\r\n\r\n     enum State{\r\n        awate_payment, awate_delivery, complete \r\n    }\r\n\r\n  \r\n\r\nmapping(address=>uint) record;\r\n\r\nconstructor() public {\r\n   \r\n    \r\n   \r\n\r\n}\r\n\r\nfunction setup(address add) public returns(bool)\r\n{\r\n\r\n   acessingContract = add;\r\n   customContract temp  = customContract(acessingContract);\r\n   tempColor=temp;\r\n   return true;\r\n //  accessingContract.call(bytes4(keccak256(\"fun(uint256)\")), a);\r\n  \r\n}\r\n\r\n\r\n\r\nfunction buyerRequest(uint _tokenID,address add) public returns(bool)\r\n{\r\n    //bytes memory payload = abi.encodeWithSignature(\"getArtiFactPrice(uint)\", _tokenID);\r\n    //(bool success, bytes memory returnData) = address(acessingContract).call(payload);\r\n    address sender=tempColor. ownerOf(_tokenID);\r\n    tempColor.buyArtiFactInfo( _tokenID,add);\r\n    //require(check>0,check);\r\n    //uint nftPrice= acessingContract.call(bytes4(keccak256(\"getArtiFactPrice(uint)\")),_tokenID);\r\n   // require(nftPrice<= msg.value,\"insufficient balance entered\");\r\n    record[msg.sender]=_tokenID;\r\n    return true;\r\n  \r\n}\r\n\r\n\r\nfunction minting(string memory _url,uint  _copies,uint price) public returns(bool)\r\n{\r\n    //bytes memory payload = abi.encodeWithSignature(\"getArtiFactPrice(uint)\", _tokenID);\r\n    //(bool success, bytes memory returnData) = address(acessingContract).call(payload);\r\n    bool check=tempColor.mintMyToken(  _url, _copies, price);\r\n   // require(check>0,\"failedddddddddddd\");\r\n    //uint nftPrice= acessingContract.call(bytes4(keccak256(\"getArtiFactPrice(uint)\")),_tokenID);\r\n   // require(nftPrice<= msg.value,\"insufficient balance entered\");\r\n   // record[msg.sender]=_tokenID;\r\n    return true;\r\n  \r\n}\r\n\r\n\r\n\r\n\r\n\r\n\r\n\r\n\r\n\r\n\r\n\r\n}",
  "sourcePath": "C:/Users/Sanan/contracts/test2/contracts/escrow.sol",
  "compiler": {
    "name": "solc",
    "version": "0.5.16+commit.9c3226ce.Emscripten.clang"
  },
  "schemaVersion": "3.4.0",
  "updatedAt": "2021-05-19T11:44:04.670Z",
  "networkType": "ethereum",
  "devdoc": {
    "methods": {}
  },
  "userdoc": {
    "methods": {}
  }
}